:100943003D57454C434F4D4520544F205553453D4E
:10095300002020204C4F4144494E472E2E2E20206C
:1009630020002020524541445920004C41554E431C
:10097300482046494E495348454421005445535461
:050983004D4F4445004A
:100A2A0042000000FF42000C0000420002000042A7
:100A3A0000080000420006000042000400004200D4
:080A4A000E000042000A00004A
:100A7500E4FD7F381209D7E4FD7F011209D7E4FDB3
:0C0A85007F0C1209D7E4FD7F800209D726
:0A0AD000EF1F70011E144E70F72294
:100A9100D287C2B5D2B6D2B730870DC2B77F017E39
:090AA10000120AD0D2B780F02245
:1009C500E0FEA3E0FF7C007D0A1204A5EF2430FFC2
:0209D5007D01A2
:1009D700AC07120A91ED6004D2B58002C2B5C2B667
:1009E700AF048F807F057E00120AD0D2B77F017EC9
:0709F70000120AD0C2B72272
:070AF500E4FD7F800209D738
:070AFC00E4FD7FC00209D7F1
:1009FE00EF1FAA0670011E4A60217C007D64D3EDB4
:100A0E009400EC940040E97B117A00EB1B70011A04
:0B0A1E00EB4A70F7ED1D70E61C80E352
:010A290022AA
:100368007590F0AF90EF64F0700302048CAF90903A
:100378000000E4F0A3EFF075900F7FB97E0012093A
:10038800FEE590540FFF900000E0F0A3E04FF090DE
:100398000000E0FEA3E0FFEE600302048CEF12050C
:1003A8000704837704577B042B7D03FE7E0478B70C
:1003B800044CBB0420BD03F2BE046DD70441DB042A
:1003C80015DD03E7DE0462E70436EB040AED03DD1E
:1003D800EE0000048CE4900000F0A3F002048C907E
:1003E8000000E4F0A304F002048C900000E4F0A301
:1003F8007402F002048C900000E4F0A37403F0028D
:10040800048C900000E4F0A37404F080779000005E
:10041800E4F0A37405F0806C900000E4F0A3740687
:10042800F08061900000E4F0A37407F0805690001B
:1004380000E4F0A37408F0804B900000E4F0A3748B
:1004480009F08040900000E4F0A3740AF080359031
:100458000000E4F0A3740BF0802A900000E4F0A3FD
:10046800740CF0801F900000E4F0A3740DF0801469
:10047800900000E4F0A3740EF08009900000E4F00E
:0A048800A3740FF0900000A3E0FF42
:010492002247
:06066D001204DBAFF0FEF9
:04067300AD07AC061D
:10067700E4FF75BA8090FFF2740FF090FFF0747585
:10068700F0A37430F090FF007402F0A374EEF0A3AF
:100697007472F0A37442F0A374C0F0E4F5BA75FE67
:1006A70080D3ED941EEC64809480505FC3ED94E298
:1006B700EC6480947F4054ED2424FDE43CFCFEED83
:1006C7007803C333CE33CED8F92477FBEE3401FA5F
:1006D700AE04AF057C007D031204A5EF2BFFEE3AB5
:1006E700FE75BA8090FF00F0A3EFF0A3C083C0822D
:1006F700C3A3E09FFF0582D5820215831582E09E82
:0B070700D082D083F0A3EFF0E4F5BA3D
:0107120022C4
:04071300AD07AC067C
:10071700E4FF74142DFDE43CFC75BA8090FFF2747D
:100727000FF090FFF07475F0A37430F090FF107421
:1007370002F0A37426F0A37473F0A3740AF0A374F1
:10074700C0F0E4F5BA75FE80C3ED9414EC648094B0
:10075700804059D3ED946EEC64809480504EAE0483
:10076700ED7803C333CE33CED8F92477FBEE3401CB
:10077700FAAE04AF057C007D031204A5EF2BFFEE54
:100787003AFE75BA8090FF10F0A3EFF0A3C083C0C4
:1007970082C3A3E09FFF0582D5820215831582E0FD
:0C07A7009ED082D083F0A3EFF0E4F5BAFE
:0107B3002223
:0C0AAA007F3D7EE17D3EDDFEDEFCDFFADC
:010AB600221D
:0C0AB7007F0D7E2D7DD6DDFEDEFCDFFA1B
:010AC3002210
:1008400090000EE07002A3E0602CC2CC7F967E0088
:100850001209FED2CC120AF5E4FBEB90096E93FF6D
:1008600060087D011209D70B80F0C2CD7FF47E01B4
:100870001209FED2CD22900002E0FEA3E0FF4E60FE
:1008800018EF64014E70030208F4900002E0700457
:09089000A3E06402700312089A4F
:01089900223C
:10058200AB07AA0690000AE07002A3E0703DD39088
:100592000005E0941E900004E0648094804004E42E
:1005A200F0A3F0900004E0FEA3E0FF4E60157C0093
:1005B2007D0A120493EF2BFFEE3A900004F0A3EFB2
:1005C200F08008900004EAF0A3EBF090000AE070DB
:1005D20004A3E06401704C900006E0FEA3E0FFD3A8
:1005E200941EEE64809480500BC3EF94E2EE64801C
:1005F200947F5007E4900006F0A3F0900006E0FE1E
:10060200A3E0FF4E60157C007D0A120493EF2BFFDE
:10061200EE3A900006F0A3EFF08008900006EAF0B0
:10062200A3EBF090000AE07004A3E06402703BD3F5
:10063200900009E0943C900008E0648094804004BB
:10064200E4F0A3F0900008E0FEA3E0FF4E60117C0E
:10065200007D0A120493EF2BFFEE3A900008800609
:0B066200AF03900008EAF0A3EFF022C5
:080AED00E490000AF0A3F022DE
:090AE40090000AE4F0A304F022E2
:030B0300020840A5
:0A0ADA0090000AE4F0A37402F02279
:100A5300900002E07004A3E064027007900002F0CB
:100A6300A3F022900003E004F07006900002E0047B
:020A7300F0226F
:1009880090000AE07004A3E064017018900006E08B
:10099800FEA3E0FF7CFF7DFF120493900006EEF0BB
:1009A800A3EFF02290000EE07002A3E070047F0134
:0D09B80080027F0090000EE4F0A3EFF0221B
:1008F40090001174FFF0A374E2F0900008E4F0A3F8
:10090400740AF0D3900012E0941C900011E064800B
:100914009480500C120AAAE475F00212066D80E36A
:10092400C3900012E094E4900011E06480947F404E
:0E0934000D120AAA74FF75F0FE12066D80E225
:010942002292
:10089A0090001174FFF0A374E2F0900008E4F0A352
:1008AA00740AF0D3900012E0941C900011E0648066
:1008BA0094805012120AB7E475F0011204F1AFF0F5
:1008CA00FE12067380DDC3900012E094E4900011DA
:1008DA00E06480947F4012120AB774FFF5F01204A4
:0908EA00F1AFF0FE12067380DD8F
:0108F30022E2
:10000300E4900008F0A3F0900006F0A3F090000441
:10001300F0A3F0D2CDD2CC120A75E4900010F09088
:100023000010E090094393FF600D7D011209D79002
:100033000010E004F080E8120AFCE4900010F09055
:100043000010E090095493FF600D7D011209D790D1
:100053000010E004F080E8120AAA120AF57D017F7D
:100063004D1209D77F4F1209D77F441209D77F4515
:100073001209D77F3A1209D7900002E0FAA3E0FBF6
:100083004A70047F4D800AEB64014A700B7D017F47
:10009300411209D77F208015900002E07004A3E08D
:1000A300640270117D017F411209D77F2B1209D79A
:1000B3007F201209D790000EE07002A3E0701C901D
:1000C3000010F0900010E090096593FF602A7D0115
:1000D3001209D7900010E004F080E8E4900010F0DB
:1000E300900010E090097F93FF600D7D011209D706
:1000F300900010E004F080E8120AFC7D017F4412B6
:1001030009D77F3A1209D79000041209C590000459
:10011300E0FEA3E0FF7C007D0A1204A5ED1209D2E4
:100123007F201209D77F481209D77F3A1209D7A334
:10013300E0FEA3E0FFC3EE648094805039C3EF94E4
:10014300E2EE6480947F402E7F2D1209D790000643
:10015300E0FEA3E0FF120AC41209CA900006E0FE03
:10016300A3E0FF120AC47C007D0A1204A5ED120964
:10017300D27F201209D7900006E0FEA3E0FFC3EE72
:10018300648094804030D3EF941EEE64809480505A
:10019300257D017F2B1209D79000061209C5900017
:1001A30006E0FEA3E0FF7C007D0A1204A5ED120920
:1001B300D27F201209D77D017F561209D77F3A12C9
:1001C30009D79000081209C5900008E0FEA3E0FFDC
:1001D3007C007D0A1204A5ED1209D27F201209D7F3
:1001E300120368EFB4100040030202809001F6F896
:1001F30028287302022602022B020231020237026E
:10020300023D02024302024902024F020255020268
:100213005B02026402026902026E02027302027846
:1002230002027DE4FFFE80347F017E00802E7F0288
:100233007E0080287F037E0080227F047E00801C56
:100243007F057E0080167F067E0080107F077E007C
:10025300800A7F087E0080047F097E001205828069
:100263001C120AED8017120AE48012120B03800D90
:10027300120ADA8008120A538003120988900004D4
:10028300E0FEA3E0FFEE6003020341EF24ECB40BB6
:100293000040030203419002A775F003A4C5832520
:1002A300F0C583730202C80202D30202DE0202E92E
:1002B3000202F40202FF02030A02031502032002F0
:1002C300032B020336900008E4F0A3740CF080754E
:1002D300900008E4F0A3740EF0806A900008E4F044
:1002E300A3740FF0805F900008E4F0A37410F08013
:1002F30054900008E4F0A37411F08049900008E4DE
:10030300F0A37414F0803E900008E4F0A37416F098
:100313008033900008E4F0A3741AF080289000085A
:10032300E4F0A3741CF0801D900008E4F0A3741F94
:10033300F08012900008E4F0A37421F08007E490A9
:100343000008F0A3F0900008E0FEA3E0FF120713FB
:10035300900006E0FEA3E0FF1206737F647E0012A6
:0503630009FE02005D2F
:030000000207B440
:0C07B400787FE4F6D8FD7581070207FB92
:10049300EF8DF0A4A8F0CF8CF0A428CE8DF0A42E7D
:0204A300FE2237
:1004A500C2D5EC30E709B2D5E4C39DFDE49CFCEE72
:1004B50030E715B2D5E4C39FFFE49EFE12052DC3B8
:1004C500E49DFDE49CFC800312052D30D507C3E4B3
:0604D5009FFFE49EFE22E1
:1004DB00C5F0F8A3E028F0C5F0F8E58215827002AC
:0604EB001583E038F02249
:1004F100A3F8E0C5F025F0F0E582158270021583BE
:06050100E0C838F0E8221A
:10050700D083D082F8E4937012740193700DA3A383
:1005170093F8740193F5828883E473740293686097
:06052700EFA3A3A380DF97
:0C0AC400EE30E707C3E49FFFE49EFE2233
:1007C000020003E493A3F8E493A34003F68001F24C
:1007D00008DFF48029E493A3F85407240CC8C3333A
:1007E000C4540F4420C8834004F456800146F6DF09
:1007F000E4800B0102040810204080900A2AE47E65
:10080000019360BCA3FF543F30E509541FFEE493FD
:10081000A360010ECF54C025E060A840B8E493A3C4
:10082000FAE493A3F8E493A3C8C582C8CAC583CAEF
:10083000F0A3C8C582C8CAC583CADFE9DEE780BEA7
:010A520000A3
:10052D00BC000BBE0029EF8DF084FFADF022E4CCB2
:10053D00F875F008EF2FFFEE33FEEC33FCEE9DEC7B
:10054D00984005FCEE9DFE0FD5F0E9E4CEFD22EDC1
:10055D00F8F5F0EE8420D21CFEADF075F008EF2F0B
:10056D00FFED33FD4007985006D5F0F222C398FDFC
:05057D000FD5F0EA2299
:00000001FF
